txs_mock = [
    {
        "safe": "0x4127839cdf4F73d9fC9a2C2861d8d1799e9DF40C",
        "to": "0x4127839cdf4F73d9fC9a2C2861d8d1799e9DF40C",
        "value": "100000",
        "data": None,
        "operation": 0,
        "gasToken": "0x0000000000000000000000000000000000000000",
        "safeTxGas": 0,
        "baseGas": 0,
        "gasPrice": "0",
        "refundReceiver": "0x0000000000000000000000000000000000000000",
        "nonce": 213,
        "executionDate": "2023-10-10T13:25:48Z",
        "submissionDate": "2023-10-10T13:25:48Z",
        "modified": "2023-10-10T13:25:48Z",
        "blockNumber": 9842468,
        "transactionHash": "0x6d1de5637d9b78a498145e5bcf13219ac88bb2fef8753887722b31c4290c2bf4",
        "safeTxHash": "0xf10a3c13a7b8cac3e343ca5f2f328c15b1aeb6031a7b1cbc4b9a65547d4d7070",
        "proposer": None,
        "executor": "0xc6b82bA149CFA113f8f48d5E3b1F78e933e16DfD",
        "isExecuted": True,
        "isSuccessful": True,
        "ethGasPrice": "1500000014",
        "maxFeePerGas": "240000000000",
        "maxPriorityFeePerGas": "1500000000",
        "gasUsed": 61718,
        "fee": "92577000864052",
        "origin": "{}",
        "dataDecoded": None,
        "confirmationsRequired": 1,
        "confirmations": [
            {
                "owner": "0xc6b82bA149CFA113f8f48d5E3b1F78e933e16DfD",
                "submissionDate": "2023-10-10T13:25:48Z",
                "transactionHash": None,
                "signature": "0x000000000000000000000000c6b82ba149cfa113f8f48d5e3b1f78e933e16dfd000000000000000000000000000000000000000000000000000000000000000001",
                "signatureType": "APPROVED_HASH",
            }
        ],
        "trusted": True,
        "signatures": "0x000000000000000000000000c6b82ba149cfa113f8f48d5e3b1f78e933e16dfd000000000000000000000000000000000000000000000000000000000000000001",
    },
    {
        "safe": "0x4127839cdf4F73d9fC9a2C2861d8d1799e9DF40C",
        "to": "0xB4FBF271143F4FBf7B91A5ded31805e42b2208d6",
        "value": "0",
        "data": "0xa9059cbb000000000000000000000000c6b82ba149cfa113f8f48d5e3b1f78e933e16dfd0000000000000000000000000000000000000000000000000de0b6b3a7640000",
        "operation": 0,
        "gasToken": "0x0000000000000000000000000000000000000000",
        "safeTxGas": 0,
        "baseGas": 0,
        "gasPrice": "0",
        "refundReceiver": "0x0000000000000000000000000000000000000000",
        "nonce": 212,
        "executionDate": "2023-09-22T10:07:48Z",
        "submissionDate": "2023-09-22T10:07:48Z",
        "modified": "2023-09-22T10:07:48Z",
        "blockNumber": 9738932,
        "transactionHash": "0xf59007f3240cada5a9514aee3eb9de4d84bd8de8ff6507f26d6b309a8b07ee4b",
        "safeTxHash": "0xa26abcadcad3176b51f91bc0bd4c4c35d9afe1db5467268642452e2911316606",
        "proposer": None,
        "executor": "0xc6b82bA149CFA113f8f48d5E3b1F78e933e16DfD",
        "isExecuted": True,
        "isSuccessful": True,
        "ethGasPrice": "1500000011",
        "maxFeePerGas": "240000000000",
        "maxPriorityFeePerGas": "1500000000",
        "gasUsed": 87376,
        "fee": "131064000961136",
        "origin": "{}",
        "dataDecoded": {
            "method": "transfer",
            "parameters": [
                {
                    "name": "dst",
                    "type": "address",
                    "value": "0xc6b82bA149CFA113f8f48d5E3b1F78e933e16DfD",
                },
                {"name": "wad", "type": "uint256", "value": "1000000000000000000"},
            ],
        },
        "confirmationsRequired": 1,
        "confirmations": [
            {
                "owner": "0xc6b82bA149CFA113f8f48d5E3b1F78e933e16DfD",
                "submissionDate": "2023-09-22T10:07:48Z",
                "transactionHash": None,
                "signature": "0x000000000000000000000000c6b82ba149cfa113f8f48d5e3b1f78e933e16dfd000000000000000000000000000000000000000000000000000000000000000001",
                "signatureType": "APPROVED_HASH",
            }
        ],
        "trusted": True,
        "signatures": "0x000000000000000000000000c6b82ba149cfa113f8f48d5e3b1f78e933e16dfd000000000000000000000000000000000000000000000000000000000000000001",
    },
]
